:100000000C9434000C9446000C9446000C9446006A
:100010000C9446000C9446000C9446000C94460048
:100020000C9446000C9446000C9446000C94460038
:100030000C9446000C9446000C9446000C94460028
:100040000C9446000C9446000C9446000C94460018
:100050000C9446000C9446000C9446000C94460008
:100060000C9446000C94460011241FBECFEFD8E03C
:10007000DEBFCDBF21E0A0E0B1E001C01D92A03104
:10008000B207E1F70E94A3010C940A020C9400004D
:100090001CBC813051F028F0823059F0833069F077
:1000A0000FC08CB5837F8CBD0BC08CB584608CBDBC
:1000B00007C08CB588608CBD03C08CB58C608CBDCE
:1000C0008CB58C7F8CBD603169F018F4643031F0F0
:1000D00014C0603459F0603869F00FC08CB58C7F63
:1000E0008CBD0BC08CB581608CBD07C08CB58260A7
:1000F0008CBD03C08CB583608CBD8CB580618CBD1C
:100100008CB58F7D8CBD8CB580648CBD5E9A5D98FE
:100110000895559A569A259A239A249808958EBD43
:100120000DB407FC07C085E08A95F1F700000DB417
:1001300007FEF9CF8EB50895FF920F931F93CF93CB
:10014000DF938B01F42E95E39A95F1F700005E980A
:1001500095E39A95F1F7000080620E948F0085E395
:100160008A95F1F70000FF2069F0E8010F0D111DDD
:1001700089910E948F0095E39A95F1F70000C017CE
:10018000D107B1F75E9ADF91CF911F910F91FF9048
:100190000895EF92FF920F931F93CF93DF9300D0B8
:1001A00000D01F92CDB7DEB7082F162FE42E2FEF09
:1001B00081EE94E0215080409040E1F700C00000C3
:1001C000FF24F394F98241E0BE016F5F7F4F81E02D
:1001D0000E949C00F98241E0BE016F5F7F4F82E088
:1001E0000E949C0083E0898341E0BE016F5F7F4FE6
:1001F0000E949C00E98241E0BE016F5F7F4F85E075
:100200000E949C0087E0898341E0BE016F5F7F4FC1
:1002100086E00E949C0019831A831B831C831D8324
:1002200045E0BE016F5F7F4F8AE00E949C0045E081
:10023000BE016F5F7F4F80E10E949C008CE089834C
:1002400041E0BE016F5F7F4F81E10E949C0088E228
:10025000898341E0BE016F5F7F4F84E00E949C0074
:100260000E61098341E0BE016F5F7F4F80E00E9415
:100270009C008FE19EE40197F1F700C000000F9011
:100280000F900F900F900F90DF91CF911F910F91D2
:10029000FF90EF9008951F93CF93DF93EC01162FFB
:1002A00040E0BC0181EE0E949C00412FBE0180EA2B
:1002B0000E949C008FE39CE90197F1F700C00000C9
:1002C0005D9A9AE69A95F1F700C05D988FE39CE9F4
:1002D0000197F1F700C00000DF91CF911F910895C1
:1002E00085E38A95F1F700005E9885E38A95F1F73A
:1002F000000087E20E948F0085E38A95F1F70000F5
:1003000080E70E948F0085E38A95F1F700005E9AEE
:100310000895ECE7F0E080838081806480838081B1
:1003200080628083EAE7F0E080818360808380815F
:1003300080688083808180648083808186FDFDCF9A
:10034000809179000895C0E0D1E0188281E089832E
:100350008EE68A8385B78F7E85BF20982198539833
:10036000529857985798289A299A5B9A5A9A5F9A5E
:100370005C9A229A0E94890060E180E00E94480015
:10038000F8944A81698188810E94C900789481E04B
:100390000E9489018C8380E00E9489018D8382E024
:1003A0000E9489018E8383E00E9489018F8387E008
:1003B0000E948901888786E00E948901898783B12C
:1003C00081708A8783B1869581708B8789B183FB21
:1003D000882780F98C8789B182FB882780F98D87EF
:1003E00089B1881F8827881F8E8789B1829581707F
:1003F0008F876CE084E091E00E944B010E947001C5
:100400002FEF89EF90E0215080409040E1F700C04D
:080410000000BDCFF894FFCFFE
:00000001FF
