:100000000C94D4000C94D5080C94E9080C94FD08C9
:100010000C94C3080C94F1000C94F1000C94F100C2
:100020000C94F1000C94F1000C94F1000C945D0917
:100030000C947B090C9499090C94F1000C94F10038
:100040000C943D090C94F1000C94F1000C94F10017
:100050000C94F1000C94F1000C94F1000C94F1005C
:100060000C94F1000C94F1009A01A101A501A901E1
:10007000AD01B101B801BF011F0328032E033403F2
:100080003A0340034B0356036103670372037D0386
:1000900088038E039903A403170720073E077607FA
:1000A000AD07C50780086E616E00696E660000408E
:1000B0007A10F35A00A0724E18090010A5D4E80077
:1000C00000E87648170000E40B54020000CA9A3B8F
:1000D000000000E1F5050000809698000000404215
:1000E0000F000000A08601000000102700000000A3
:1000F000E803000000006400000000000A000000A7
:1001000000000100000000002C76D888DC674F0852
:1001100023DFC1DFAE59E1B1B796E5E3E453C63A58
:10012000E651997696E8E6C28426EB898C9B62EDCF
:10013000407C6FFCEFBC9C9F40F2BAA56FA5F49089
:10014000055A2AF75C936B6CF9676DC11BFCE0E400
:100150000D47FEF520E6B500D0ED902E0300943556
:1001600077050080841E080000204E0A000000C8A9
:100170000C333333330F986E12831141EF8D2114FA
:10018000893BE65516CFFEE6DB18D1844B381BF7CA
:100190007C1D901DA4BBE424203284725E22810069
:1001A000C9F124ECA1E53D2711241FBECFEFD8E013
:1001B000DEBFCDBF11E0A0E0B1E0E6E7F5E202C0AE
:1001C00005900D92A830B107D9F721E0A8E0B1E081
:1001D00001C01D92A732B207E1F70E94DE060C941F
:1001E000B9120C940000CF92DF92EF92FF9220E0C0
:1001F00030E04AE754E40E94620B6B017C0125E881
:1002000031EB45E857E30E945D0B18163CF081E0A6
:1002100090E0909315018093140143C025E831EBE1
:1002200045E059E3C701B6010E945D0B18163CF08A
:1002300088E090E0909315018093140132C025E886
:1002400031EB45E85AE3C701B6010E945D0B181671
:100250003CF080E490E0909315018093140121C05C
:1002600025E831EB45E85BE3C701B6010E945D0B71
:1002700018163CF080E091E09093150180931401F2
:1002800010C025E831EB45E85CE3C701B6010E94E8
:100290005D0B181634F080E094E090931501809384
:1002A000140184B5887F84BD80911401909115015B
:1002B00088309105D1F028F4009779F0019789F002
:1002C00023C0811521E09207C1F0811524E0920737
:1002D000C1F080349105C1F40CC085B5887F85BD1F
:1002E00013C085B5816085BD0FC085B5826085BDB1
:1002F0000BC085B5836085BD07C085B5846085BDAD
:1003000003C085B5856085BDFF90EF90DF90CF90ED
:100310000895E82F84B58C7F84BD85B5877F85BD22
:100320008E2F90E08830910580F5FC01EC5CFF4F4A
:100330000C94C31084B58C7F84BD84B5877F84BD45
:10034000089584B5816084BD089584B5826084BDBC
:10035000089584B5836084BD089585B5886085BDA2
:10036000089585B5886085BD84B5816084BD089594
:1003700085B5886085BD84B5826084BD089585B5E6
:10038000886085BD84B5836084BD089594B59F73EE
:1003900094BD94B59F7C94BD813051F028F082309B
:1003A00059F0833069F00FC084B58F7384BD0BC0E2
:1003B00084B5806484BD07C084B5806884BD03C0F3
:1003C00084B5806C84BD613051F028F0623059F002
:1003D000633069F0089584B58F7C84BD089584B539
:1003E000806184BD089584B5806284BD089584B51C
:1003F000806384BD0895882331F0A99AEEE6F0E089
:10040000808182608083662331F0AA9AEEE6F0E074
:10041000808184608083442331F0A89AEEE6F0E086
:1004200080818160808308958F929F92AF92BF9266
:10043000CF92DF92EF92FF926B017C01E4E6F0E055
:1004400080818F7D808382E00E948901C701B6018F
:100450000E94F3002091140130911501220F331FE7
:1004600040E050E060E074E284EF90E00E94A4106D
:10047000CA01B9010E94050C4B015C0120E030E08B
:100480004AE754E4C701B6010E94620B9B01AC012C
:10049000C501B4010E94BA0C20E030E040E85FE3FF
:1004A0000E94F00A0E94D40B67BD60E080E00E94C9
:1004B000C60141E060E080E00E94FB01FF90EF9008
:1004C000DF90CF90BF90AF909F908F900895CF9284
:1004D000DF92EF92FF9220E030E04AE754E40E947E
:1004E000620B6B017C0127E337E346E85BE30E9484
:1004F0005D0B18163CF081E090E09093130180931F
:10050000120143C027E337E346E05DE3C701B601CC
:100510000E945D0B18163CF088E090E09093130168
:100520008093120132C027E337E346E85EE3C70158
:10053000B6010E945D0B18163CF080E490E09093A9
:1005400013018093120121C027E337E346E85FE3FC
:10055000C701B6010E945D0B18163CF080E091E0E7
:10056000909313018093120110C027E337E346E80C
:1005700050E4C701B6010E945D0B181634F080E00C
:1005800094E09093130180931201E1E8F0E0808100
:10059000887F8083809112019091130188309105AA
:1005A000F1F028F4009779F0019799F02FC08115A8
:1005B00021E0920701F1811524E0920711F18034C6
:1005C000910521F512C0E1E8F0E08081887F808309
:1005D0001DC0E1E8F0E080818160808317C0E1E820
:1005E000F0E080818260808311C0E1E8F0E08081EA
:1005F000836080830BC0E1E8F0E0808184608083C9
:1006000005C0E1E8F0E0808185608083FF90EF9095
:10061000DF90CF900895E82FA0E8B0E08C918C7F18
:100620008C938C91877E8C938E2F90E080319105F6
:1006300008F094C0FC01E45CFF4F0C94C310E0E8A8
:10064000F0E080818C7F80838081877E8083089525
:10065000E0E8F0E08081816080830895E0E8F0E0E8
:100660008081826080830895E0E8F0E0808183608B
:1006700080830895E1E8F0E08081886080830895B8
:10068000E1E8F0E0808188608083E0E8F0E080814C
:10069000816080830895E1E8F0E080818860808354
:1006A000E0E8F0E08081826080830895E1E8F0E096
:1006B000808188608083E0E8F0E0808183608083CF
:1006C0000895E1E8F0E08081806180830895E1E8A9
:1006D000F0E0808180618083E0E8F0E080818160EB
:1006E00080830895E1E8F0E0808180618083E0E824
:1006F000F0E08081826080830895E1E8F0E080810D
:1007000080618083E0E8F0E08081836080830895E9
:10071000E1E8F0E08081886180830895E1E8F0E01D
:10072000808188618083E0E8F0E08081816080835F
:100730000895E1E8F0E0808188618083E0E8F0E0FE
:100740008081826080830895E1E8F0E080818861A3
:100750008083E0E8F0E08081836080830895E0E8B2
:10076000F0E090819F73908390819F7C9083813093
:1007700061F028F0823079F0833099F017C0E0E81A
:10078000F0E080818F73808311C0E0E8F0E0808129
:10079000806480830BC0E0E8F0E080818068808323
:1007A00005C0E0E8F0E08081806C8083613061F01A
:1007B00028F0623079F0633099F00895E0E8F0E0D5
:1007C00080818F7C80830895E0E8F0E08081806103
:1007D00080830895E0E8F0E080818062808308955E
:1007E000E0E8F0E08081806380830895882331F021
:1007F000B59AEFE6F0E0808180628083662331F075
:10080000B19AEFE6F0E0808182608083442331F08A
:10081000B29AEFE6F0E0808184608083222331F099
:10082000B09AEFE6F0E080818160808308954F9276
:100830005F926F927F928F929F92AF92BF92CF9270
:10084000DF92EF92FF920F931F93CF93DF9300D02D
:1008500000D000D0CDB7DEB74B015C0129013A01D1
:10086000E982FA820B831C838EE00E940B03C50190
:10087000B4010E946702209112013091130140E0FF
:1008800050E060E074E284EF90E00E94A410CA019E
:10089000B9010E94050C6B017C0120E030E04AE7C1
:1008A00054E4C501B4010E94620B9B01AC01C70175
:1008B000B6010E94BA0C20E030E040E85FE30E94FD
:1008C000F00A0E94D40BE6E8F0E071836083E080D8
:1008D000F18020E030E048EC52E4C301B2010E9414
:1008E000620B4B015C01B70180E090E00E94030CB9
:1008F0009B01AC01C501B4010E94BA0C0E94D40B4B
:100900007093890060938800E6E8F0E00190F08140
:10091000E02DFE83ED8320E030E048EC52E4698175
:100920007A818B819C810E94620B6B017C012D81FD
:100930003E81B90180E090E00E94030C9B01AC0174
:10094000C701B6010E94BA0C0E94D40B70938B00B1
:1009500060938A0026960FB6F894DEBF0FBECDBF17
:10096000DF91CF911F910F91FF90EF90DF90CF908B
:10097000BF90AF909F908F907F906F905F904F90BF
:1009800008951CBC813051F028F0823059F083303A
:1009900069F00FC08CB5837F8CBD0BC08CB58460B3
:1009A0008CBD07C08CB588608CBD03C08CB58C60D5
:1009B0008CBD8CB58C7F8CBD603169F018F46430CF
:1009C00031F014C0603459F0603869F00FC08CB554
:1009D0008C7F8CBD0BC08CB581608CBD07C08CB585
:1009E00082608CBD03C08CB583608CBD8CB580618A
:1009F0008CBD8CB58F7D8CBD8CB580648CBD2A9AE6
:100A000029980895219A229A259A239A249808953C
:100A10008EBD0DB407FC07C085E08A95F1F7000094
:100A20000DB407FEF9CF8EB5089595E39A95F1F7C9
:100A300000002A9895E39A95F1F700000E940805B6
:100A400085E38A95F1F700008FEF0E94080595E392
:100A50009A95F1F700002A9A0895FF920F931F9339
:100A6000CF93DF938B01F42E95E39A95F1F7000075
:100A70002A9895E39A95F1F7000080620E94080594
:100A800085E38A95F1F70000FF2069F0E8010F0D7A
:100A9000111D89910E94080595E39A95F1F70000D0
:100AA000C017D107B1F72A9ADF91CF911F910F910B
:100AB000FF900895EF92FF920F931F93CF93DF93D0
:100AC000F82E8B01E42E85E38A95F1F700002A9831
:100AD00085E38A95F1F700008F2D0E94080585E3D4
:100AE0008A95F1F70000EE20D1F0E8010E0D111DFE
:100AF00080EAF81649F08FEF0E940805888385E3A5
:100B00008A95F1F7000007C088810E94080585E3F7
:100B10008A95F1F700002196C017D10749F72A9A64
:100B2000DF91CF911F910F91FF90EF900895EF9279
:100B3000FF920F931F93CF93DF9300D000D01F92AB
:100B4000CDB7DEB7082F162FE42E2FEF81EE94E0FD
:100B5000215080409040E1F700C00000FF24F39452
:100B6000F98241E0BE016F5F7F4F81E00E942D0559
:100B7000F98241E0BE016F5F7F4F82E00E942D0548
:100B800083E0898341E0BE016F5F7F4F0E942D05A6
:100B9000E98241E0BE016F5F7F4F85E00E942D0535
:100BA00087E0898341E0BE016F5F7F4F86E00E944E
:100BB0002D0519831A831B831C831D8345E0BE0109
:100BC0006F5F7F4F8AE00E942D0545E0BE016F5F99
:100BD0007F4F80E10E942D058CE0898341E0BE01BA
:100BE0006F5F7F4F81E10E942D0588E2898341E09C
:100BF000BE016F5F7F4F84E00E942D050E61098367
:100C000041E0BE016F5F7F4F80E00E942D058FE1C4
:100C10009EE40197F1F700C000000F900F900F9035
:100C20000F900F90DF91CF911F910F91FF90EF9058
:100C30000895299A2FEF89EF90E02150804090404D
:100C4000E1F700C000002998089585E38A95F1F73F
:100C500000002A9885E38A95F1F7000087E20E9458
:100C6000080585E38A95F1F7000080E70E940805F2
:100C700085E38A95F1F700002A9A0895E9E6F0E005
:100C8000808183608083E09AE89A0895E9E6F0E045
:100C900080818C608083E19AE99A0895E8E6F0E02B
:100CA000808181608083EBE6F0E0808181608083D9
:100CB0000895E8E6F0E0808182608083ECE6F0E071
:100CC0008081886080830895EF92FF920F931F9335
:100CD000CF93DF93C7E1D1E081E0888389838EE6FB
:100CE0008A831B8285B78F7E85BF3B98439A529833
:100CF00053982098549A559A569A579A3D9A3C9AE6
:100D00000E94020560E180E00E94C104449AF894C8
:100D100060E070E080E291E40E94140260910401BE
:100D2000709105018091060190910701E12CF12C51
:100D300008E412E4A80197010E94170460E080E033
:100D40000E94AF0321E041E061E080E00E94F603F1
:100D50004A81698188810E9497050E943E060E940F
:100D600046060E944E060E9459067894DF91CF9164
:100D70001F910F91FF90EF90089590910F0198139C
:100D80001BC05C9B02C05C9801C05C9A10920F0172
:100D900080E590E05D9AEFECF7E03197F1F700C065
:100DA00000005D98EFECF7E03197F1F700C000002C
:100DB000019781F781E0089580E00895109216016F
:100DC0002FEF89E698E1215080409040E1F700C084
:100DD0000000C1E00F2EFDEC8F2EFCEC9F2EFCE4FA
:100DE000AF2EFFE3BF2EF02D0F2EF6E05F2EF02D7D
:100DF0000F2EF7E1CF2EF1E0DF2EF02D689477244F
:100E000072F80F2EF5E06F2EF02D0F2EF3E04F2E1F
:100E1000F02DD2E0E09116018E2F90E08730910501
:100E200008F0A0C1FC01E45BFF4F0C94C3100E94CA
:100E300064060E942506C093160110920B0192C110
:100E400080910B01882321F080910B01863029F4D9
:100E5000D0931601D0930C0109C080910B01823010
:100E600019F44092160102C07092160180910B0194
:100E7000863009F477C1C0930B0174C1E12CF12CC9
:100E800008E412E4A8019701C501B4010E94170407
:100E900080910C01813009F45C9A80910C018230C0
:100EA00009F45C98C093110180910C010E94BD0669
:100EB000882309F457C110921101EFEFF5EA2EE0F3
:100EC000E150F0402040E1F700C0000080910B01AC
:100ED000813021F4C0931601D0930B0180910B0156
:100EE000863009F03FC1409216013CC1E12CF12C43
:100EF00008E412E4A8019701C501B4010E94170497
:100F000080910E01811104C05E98C09310012AC126
:100F100010920E01109210018FEF95EAEEE08150D1
:100F20009040E040E1F700C0000080910B0181306B
:100F300011F4C093160180910B01863059F4FFEF34
:100F400029E688E1F15020408040E1F700C0000030
:100F50005092160140920B0105C10E941906F6013C
:100F60008381813079F48585813009F002C18091D7
:100F70000F01811107C06092160104C05092160142
:100F800010920E0170920B01EDC0F60184818C3637
:100F900018F4C09311015C9AF6018481833918F02A
:100FA000C09311015C98F6018681833918F0C093D3
:100FB00010015E98F60186818C3618F4C0931001FA
:100FC0005E9AF60186818C56873210F410921001D9
:100FD000F601608570E080E090E00E94050C26ED4F
:100FE00038EC4EE25BE30E94BA0C9B01AC0169EE67
:100FF0007EEE8EE69FE30E94F00A609304017093F8
:10100000050180930601909307016091040170919E
:10101000050180910601909107012DEC3CEC4CEC10
:101020005EE30E945D0B882364F48DEC9CECACECD9
:10103000BEE38093040190930501A0930601B09351
:101040000701609104017091050180910601909162
:101050000701A50194010E94B50C181644F4809272
:10106000040190920501A0920601B09207018091BF
:10107000080181110DC0F60184818C56873208F475
:101080007CC0C093080180910801813029F40FC011
:1010900080910801813021F080910801823039F47B
:1010A000F60184818C56873210F4409208018091B9
:1010B0000801823081F48091040190910501A09192
:1010C0000601B09107018093000190930101A09364
:1010D0000201B093030160910001709101018091C0
:1010E000020190910301E12CF12C08E412E4A80123
:1010F00097010E9417047092160160920B0132C092
:1011000080910B01843021F4C093160150920B01A1
:1011100080910B01833079F4C09311015C9A809225
:10112000040190920501A0920601B0920701C093BC
:10113000080150920B0180910801823019F4C0938C
:1011400010015E986091000170910101809102018F
:1011500090910301E12CF12C08E412E4A80197011D
:101160000E9417048C2F0E94BD068D2F0E94BD0681
:1011700051CE882309F402CF05CF80910801813038
:1011800009F08ACF92CF1F920F920FB60F921124BF
:101190008F93339B03C081E080930E01D99A8F9186
:1011A0000F900FBE0F901F9018951F920F920FB6C1
:1011B0000F9211248F934A9B05C01092110181E078
:1011C00080930F01E09A8F910F900FBE0F901F90A8
:1011D00018951F920F920FB60F9211248F934B9B6D
:1011E00005C01092110182E080930F01E19A8F9166
:1011F0000F900FBE0F901F9018951F920F920FB671
:101200000F9211242F933F934F935F936F937F938C
:101210008F939F93AF93BF93EF93FF93F894299885
:10122000189918C087E00E94150586FF13C08091A9
:101230001A01811105C081E080931A014498459AF2
:101240004CE06BE171E081E60E945A050E942506A0
:1012500010920D01D89A7894FF91EF91BF91AF91C0
:101260009F918F917F916F915F914F913F912F91BE
:101270000F900FBE0F901F9018951F920F920FB6F0
:101280000F9211248F9380910D018F5F80930D0138
:1012900080910D01843651F410920D0180911A0154
:1012A000813021F410921A014598449AA89A8F919E
:1012B0000F900FBE0F901F9018951F920F920FB6B0
:1012C0000F9211248F9380911101882369F08091EE
:1012D0001A01813041F080911601823021F0809115
:1012E0001601863009F45D98B19A8F910F900FBE68
:1012F0000F901F9018951F920F920FB60F92112406
:101300008F9380911001882369F080911A018130B8
:1013100041F080911601833021F0809116018630D2
:1013200009F45F98B29A8F910F900FBE0F901F90A3
:1013300018951F920F920FB60F9211248F929F92C1
:10134000AF92BF92CF92DF92EF92FF922F933F9393
:101350004F935F936F937F938F939F93AF93BF93BD
:10136000CF93DF93EF93FF9380911101882309F4CA
:1013700004C180911A01813049F0809116018230B8
:1013800029F080911601863009F00AC15D9A80919A
:101390000801813061F080910801833041F0809133
:1013A0000801823069F480911601863049F48091F9
:1013B000090190910A01019690930A018093090115
:1013C0004091090150910A019A0136952795ABE7A2
:1013D000B4E10E94C9109695879562E3689F9001D9
:1013E000699F300D112442175307B9F58091080108
:1013F000813099F560910401709105018091060199
:1014000090910701C0910901D0910A0120E030E0DC
:1014100040E85FE30E94F00A6B017C01BE0180E0BE
:1014200090E00E94030C9B01AC01C701B6010E9431
:10143000BA0C20E030E04AEF53E40E94620B20E057
:1014400030E040E85FE30E94F10A6093000170938E
:101450000101809302019093030140910901509191
:101460000A019A0136952795ABE7B4E10E94C910AD
:101470009695879562E3689F9001699F300D1124CE
:101480004217530709F03FC0809108018330D9F516
:10149000C0900401D0900501E0900601F090070192
:1014A00060910401709105018091060190910701FE
:1014B000C0910901D0910A0120E030E040E85FE3EB
:1014C0000E94F00A4B015C01BE0180E090E00E94A6
:1014D000030C9B01AC01C501B4010E94BA0C20E0D1
:1014E00030E04AEF53E40E94620B9B01AC01C7015C
:1014F000B6010E94F00A609300017093010180938D
:101500000201909303018091090190910A01843FA7
:10151000914059F480910801813039F410920A0108
:101520001092090182E08093080180910901909155
:101530000A01843F914061F480910801833041F4B5
:1015400010920A01109209011092080110921101E3
:1015500080911601863089F48091090190910A01E9
:101560008036994051F410920A011092090183E0EB
:101570008093080184E080931601809110018823F4
:1015800069F080911A01813041F080911601833019
:1015900021F080911601863009F45F9AB09A05C057
:1015A000809110018111F1CFF9CFFF91EF91DF917F
:1015B000CF91BF91AF919F918F917F916F915F91EB
:1015C0004F913F912F91FF90EF90DF90CF90BF9080
:1015D000AF909F908F900F900FBE0F901F90189517
:1015E0005058BB27AA270E94080B0C947B0C0E9422
:1015F0006D0C38F00E94740C20F039F49F3F19F400
:1016000026F40C946A0C0EF4E095E7FB0C94640C41
:10161000E92F0E948C0C58F3BA17620773078407EE
:10162000950720F079F4A6F50C94AE0C0EF4E09535
:101630000B2EBA2FA02D0B01B90190010C01CA018C
:10164000A0011124FF27591B99F0593F50F4503E37
:1016500068F11A16F040A22F232F342F4427585F29
:10166000F3CF469537952795A795F0405395C9F741
:101670007EF41F16BA0B620B730B840BBAF09150F9
:10168000A1F0FF0FBB1F661F771F881FC2F70EC098
:10169000BA0F621F731F841F48F48795779567956B
:1016A000B795F7959E3F08F0B0CF9395880F08F057
:1016B0009927EE0F9795879508950E94400C08F49E
:1016C00081E008950E94760B0C947B0C0E94740CB0
:1016D00058F00E946D0C40F029F45F3F29F00C9403
:1016E000640C51110C94AF0C0C946A0C0E948C0C7D
:1016F00068F39923B1F3552391F3951B550BBB2741
:10170000AA2762177307840738F09F5F5F4F220F85
:10171000331F441FAA1FA9F335D00E2E3AF0E0E87C
:1017200032D091505040E695001CCAF72BD0FE2FC6
:1017300029D0660F771F881FBB1F2617370748075A
:10174000AB07B0E809F0BB0B802DBF01FF27935812
:101750005F4F3AF09E3F510578F00C94640C0C9466
:10176000AF0C5F3FE4F3983ED4F386957795679589
:10177000B795F7959F5FC9F7880F911D9695879547
:1017800097F90895E1E0660F771F881FBB1F621766
:1017900073078407BA0720F0621B730B840BBA0B24
:1017A000EE1F88F7E09508950E94940C88F09F57EB
:1017B00098F0B92F9927B751B0F0E1F0660F771F75
:1017C000881F991F1AF0BA95C9F714C0B13091F06B
:1017D0000E94AE0CB1E008950C94AE0C672F782FE8
:1017E0008827B85F39F0B93FCCF386957795679530
:1017F000B395D9F73EF490958095709561957F4F9C
:101800008F4F9F4F0895E89409C097FB3EF4909541
:101810008095709561957F4F8F4F9F4F9923A9F0C9
:10182000F92F96E9BB279395F69587957795679558
:10183000B795F111F8CFFAF4BB0F11F460FF1BC09C
:101840006F5F7F4F8F4F9F4F16C0882311F096E92F
:1018500011C0772321F09EE8872F762F05C06623DD
:1018600071F096E8862F70E060E02AF09A95660F96
:10187000771F881FDAF7880F9695879597F908954F
:10188000990F0008550FAA0BE0E8FEEF1616170691
:10189000E807F907C0F012161306E407F50798F0F9
:1018A000621B730B840B950B39F40A2661F0232B12
:1018B000242B252B21F408950A2609F4A140A6958E
:1018C0008FEF811D811D089597F99F6780E870E073
:1018D00060E008959FEF80EC089500240A941616A6
:1018E000170618060906089500240A94121613060E
:1018F000140605060895092E0394000C11F488239C
:1019000052F0BB0F40F4BF2B11F460FF04C06F5FB7
:101910007F4F8F4F9F4F089557FD9058440F551F8D
:1019200059F05F3F71F04795880F97FB991F61F061
:101930009F3F79F087950895121613061406551FD8
:10194000F2CF4695F1DF08C0161617061806991F44
:10195000F1CF86957105610508940895E894BB2739
:1019600066277727CB0197F908950E94400C08F469
:101970008FEF08950E94CD0C0C947B0C0E946D0C8F
:1019800038F00E94740C20F0952311F00C94640C34
:101990000C946A0C11240C94AF0C0E948C0C70F304
:1019A000959FC1F3950F50E0551F629FF001729F04
:1019B000BB27F00DB11D639FAA27F00DB11DAA1F13
:1019C000649F6627B00DA11D661F829F2227B00D60
:1019D000A11D621F739FB00DA11D621F839FA00DEB
:1019E000611D221F749F3327A00D611D231F849F3B
:1019F000600D211D822F762F6A2F11249F57504092
:101A00009AF0F1F088234AF0EE0FFF1FBB1F661F0C
:101A1000771F881F91505040A9F79E3F510580F0D5
:101A20000C94640C0C94AF0C5F3FE4F3983ED4F339
:101A3000869577956795B795F795E7959F5FC1F779
:101A4000FE2B880F911D9695879597F90895A0E133
:101A5000B0E0EDE2FDE00C94D8107C011B016A01BE
:101A6000FC0117821682838181FF44C39E012F5F90
:101A70003F4F3901F7019381F10193FD859193FF68
:101A800081911F01882309F431C3853239F493FD14
:101A9000859193FF81911F01853239F4B70190E060
:101AA0000E941F1256016501E5CF10E0512C912CC8
:101AB000FFE1F915D8F08B3279F038F4803279F003
:101AC0008332A1F4F92DF0612EC08D3261F08033A4
:101AD00069F4292D21602DC0392D3260932E892D76
:101AE0008460982E2AC0E92DE86015C097FC2DC0AF
:101AF00020ED280F2A3088F496FE06C03AE0139FA6
:101B0000200D1124122F19C08AE0589E200D112497
:101B1000522EE92DE0629E2E10C08E3231F496FCDA
:101B2000E5C2F92DF0649F2E08C08C3621F4292DD2
:101B30002068922E02C0883641F4F10193FD859110
:101B400093FF81911F018111B3CF9BEB980F9330CD
:101B500020F4992D9061805E07C09BE9980F933027
:101B600008F066C1992D9F7E96FF16E09F73992E0F
:101B7000853619F49064992E08C0863621F4392FE1
:101B80003068932E02C01111115097FE07C01C330C
:101B900050F444244394410E27E00BC0183038F031
:101BA00027E017E005C027E09CE3492E02C0212F63
:101BB000412C560184E0A80EB11CF60160817181B0
:101BC00082819381042DA3010E9431116C01F9815E
:101BD000FC87F0FF02C0F3FF06C091FC06C092FE36
:101BE00006C000E205C00DE203C00BE201C000E048
:101BF0008C858C7019F001115AC29BC297FE10C0DF
:101C00004C0CFC85F4FF04C08A81813309F44A94AA
:101C1000141474F528E0241578F588E0482E2CC0BB
:101C200096FC2AC0812F90E08C159D059CF03CEF1E
:101C3000C3163FEFD30674F0892D8068982E0AC032
:101C4000E2E0F0E0EC0FFD1FE10FF11D8081803339
:101C500019F411501111F4CF97FE0EC0442443948F
:101C6000410E812F90E0C816D9062CF41C1904C02F
:101C70004424439401C010E097FE06C01C141D04C8
:101C800034F4C601019605C085E090E002C081E011
:101C900090E001110196112331F0212F30E02F5FE8
:101CA0003F4F820F931F252D30E08217930714F4C6
:101CB000581A01C0512C892D897049F4552039F0EA
:101CC000B70180E290E00E941F125A94F7CF0023E0
:101CD00029F0B701802F90E00E941F1293FC09C0E9
:101CE000552039F0B70180E390E00E941F125A940A
:101CF000F7CF97FE4CC04601D7FE02C0812C912C35
:101D0000C60188199909F301E80FF91FFE87ED87CD
:101D1000960124193109388B2F87012F10E0119576
:101D2000019511093FEF8316930629F4B7018EE25E
:101D300090E00E941F12C814D9044CF08F85988936
:101D40008815990524F4ED85FE85818101C080E325
:101D5000F1E08F1A91082D853E852F5F3F4F3E871A
:101D60002D87801691062CF0B70190E00E941F127B
:101D7000D9CFC814D90441F49A81963320F495330D
:101D800019F43C8534FF81E3B70190E04EC08A81AD
:101D9000813319F09C859F7E9C87B70190E00E945B
:101DA0001F12111105C094FC18C085E690E017C001
:101DB000B7018EE290E00E941F121E5F82E001E0F8
:101DC000080FF301E80FF11D8081B70190E00E9438
:101DD0001F12802F0113F3CFE6CF85E490E0B70107
:101DE0000E941F12D7FC06C0C114D10441F4EC8537
:101DF000E4FF05C0D194C194D1088DE201C08BE20B
:101E0000B70190E00E941F1280E32AE0C216D104BD
:101E10002CF08F5FFAE0CF1AD108F7CFB70190E02E
:101E20000E941F12B701C601C0960E941F1254C122
:101E3000833631F0833779F0833509F056C020C0FE
:101E4000560132E0A30EB11CF6018081898301E0C6
:101E500010E0630112C05601F2E0AF0EB11CF601B2
:101E6000C080D18096FE03C0612F70E002C06FEF8A
:101E70007FEFC6010E9414128C01F92DFF7714C068
:101E8000560122E0A20EB11CF601C080D18096FE60
:101E900003C0612F70E002C06FEF7FEFC6010E94A8
:101EA00009128C01F92DF0689F2EF3FD1AC0852DC3
:101EB00090E008171907A8F4B70180E290E00E94AB
:101EC0001F125A94F4CFF60197FC859197FE8191E9
:101ED0006F01B70190E00E941F1251105A940150F7
:101EE00011090115110579F7F7C0843611F089360B
:101EF00061F5560197FE09C024E0A20EB11CF6015F
:101F000060817181828193810AC0F2E0AF0EB11CC1
:101F1000F60160817181072E000C880B990BF92D59
:101F2000FF769F2E97FF09C09095809570956195DB
:101F30007F4F8F4F9F4FF0689F2E2AE030E0A30124
:101F40000E945B12C82EC6183FC0092D853721F4A8
:101F50000F7E2AE030E01DC0097F8F3691F018F423
:101F6000883559F0C3C0803719F0883711F0BEC0EA
:101F7000006104FF09C0046007C094FE08C0066049
:101F800006C028E030E005C020E130E002C020E1DA
:101F900032E0560107FF09C084E0A80EB11CF6012B
:101FA000608171818281938108C0F2E0AF0EB11C23
:101FB000F6016081718180E090E0A3010E945B12D4
:101FC000C82EC6180F77902E96FE0BC0092D0E7FD7
:101FD000C11650F494FE0AC092FC08C0092D0E7E72
:101FE00005C0DC2C092D03C0DC2C01C0D12E04FF60
:101FF0000DC0FE01EC0DF11D8081803311F4097ECE
:1020000009C002FF06C0D394D39404C0802F867801
:1020100009F0D39403FD11C000FF06C01C2DD51498
:1020200080F4150D1D190DC0D51458F4B70180E2C8
:1020300090E00E941F12D394F7CFD51410F45D18CE
:1020400001C0512C04FF10C0B70180E390E00E9452
:102050001F1202FF17C001FD03C088E790E002C015
:1020600088E590E0B7010CC0802F867859F001FF19
:1020700002C08BE201C080E207FD8DE2B70190E073
:102080000E941F12C11638F4B70180E390E00E944D
:102090001F121150F7CFCA94F301EC0DF11D80818E
:1020A000B70190E00E941F12C110F5CF15C0F4E0F7
:1020B000F51560F584E0581A93FE1FC0011127C082
:1020C0002C8523FF2AC006EA10E0392D3071932EAB
:1020D000F8018491811124C0552009F4E4CCB701A2
:1020E00080E290E00E941F125A94F6CFF701868199
:1020F000978126C08FEF9FEF23C0B70180E290E069
:102100000E941F125A945110F8CFD8CF512CB7010A
:10211000802F90E00E941F12D3CF0AEA10E0D5CFA3
:1021200091108052B70190E00E941F120F5F1F4F65
:10213000CFCF23E0251510F483E0BDCF512CC0CFC5
:102140006096E2E10C94F410052E97FB1EF40094C7
:102150000E94BB1057FD07D00E940F1107FC03D04F
:102160004EF40C94BB1050954095309521953F4FFF
:102170004F4F5F4F089590958095709561957F4F73
:102180008F4F9F4F0895EE0FFF1F0590F491E02DA4
:102190000994A29FB001B39FC001A39F700D811D40
:1021A0001124911DB29F700D811D1124911D089560
:1021B0002F923F924F925F926F927F928F929F9257
:1021C000AF92BF92CF92DF92EF92FF920F931F9345
:1021D000CF93DF93CDB7DEB7CA1BDB0B0FB6F894F6
:1021E000DEBF0FBECDBF09942A88398848885F8436
:1021F0006E847D848C849B84AA84B984C884DF80A7
:10220000EE80FD800C811B81AA81B981CE0FD11D8A
:102210000FB6F894DEBF0FBECDBFED010895A1E269
:102220001A2EAA1BBB1BFD010DC0AA1FBB1FEE1F50
:10223000FF1FA217B307E407F50720F0A21BB30B9B
:10224000E40BF50B661F771F881F991F1A9469F717
:1022500060957095809590959B01AC01BD01CF0173
:102260000895283008F027E03327DA01990F311D4F
:1022700087FD916000966105710539F432602E5F2B
:102280003D9330E32A95E1F708959F3F30F0803881
:102290007105610509F03C5F3C5F3D93913008F0AA
:1022A0008068911DDF93CF931F930F93FF92EF925E
:1022B000192F987F9695E92F96959695E90FFF2708
:1022C000E85FFE4F99273327EE24FF24A701E7019B
:1022D00005900894079428F4360FE71EF81E491F4E
:1022E000511D660F771F881F991F0694A1F705904F
:1022F000079428F4E70EF81E491F561FC11D770FDB
:10230000881F991F661F0694A1F70590079428F46B
:10231000F80E491F561FC71FD11D880F991F661F32
:10232000771F0694A1F70590079420F4490F561FD4
:10233000C71FD81F990F661F771F881F0694A9F71C
:1023400084911095177041F0D695C795579547958C
:10235000F794E7941A95C1F7EEEAF0E068941590C7
:10236000159135916591959105907FE27395E118EE
:10237000F10A430B560BC90BD009C0F7E10CF11E53
:10238000431F561FC91FD01D7EF4703311F48A9568
:10239000E6CFE894015030F0080F0AF40027021746
:1023A00008F4202F2395022F7A3328F079E37D93C8
:1023B0002A95E9F710C07D932A9589F6069497959A
:1023C0006795379517951794E118F10A430B560B4B
:1023D000C90BD00998F023957E9173957A3308F054
:1023E00070E37C932013B8F77E9170617D9330F099
:1023F000839571E37D9370E32A95E1F71124EF90C3
:10240000FF900F911F91CF91DF91992787FD9095B4
:102410000895FC010590615070400110D8F7809537
:1024200090958E0F9F1F0895FC01615070400190A0
:102430000110D8F7809590958E0F9F1F08950F93E8
:102440001F93CF93DF93FB01238121FD03C08FEF07
:102450009FEF2CC022FF16C0468157812481358111
:102460004217530744F4A081B1819D012F5F3F4F74
:10247000318320838C93268137812F5F3F4F3783B1
:10248000268314C08B01EC01FB010084F185E02D53
:102490000995892BE1F6D80116968D919C91179795
:1024A000019617969C938E931697CE01DF91CF914C
:1024B0001F910F910895FA01AA27283051F1203178
:1024C00081F1E8946F936E7F6E5F7F4F8F4F9F4FC8
:1024D000AF4FB1E03ED0B4E03CD0670F781F891F0A
:1024E0009A1FA11D680F791F8A1F911DA11D6A0FD8
:1024F000711D811D911DA11D20D009F468943F918B
:102500002AE0269F11243019305D3193DEF6CF0189
:102510000895462F4770405D4193B3E00FD0C9F74F
:10252000F6CF462F4F70405D4A3318F0495D31FDBC
:102530004052419302D0A9F7EACFB4E0A69597950F
:10254000879577956795BA95C9F7009761057105E5
:1025500008959B01AC010A2E06945795479537952F
:102560002795BA95C9F7620F731F841F951FA01D89
:062570000895F894FFCF6E
:08257600CDCC4C3FCDCC4C3F15
:00000001FF
